:020000040800F2
:10000000300700204501000835140008671100087A
:100010003114000835020008CD1600080000000069
:10002000000000000000000000000000651400084F
:1000300039020008000000003914000867140008A5
:100040005F0100085F0100085F0100085F01000810
:100050005F0100085F0100085F0100085F01000800
:100060005F0100085F0100085F0100085F010008F0
:100070005F0100085F0100085F0100085F010008E0
:100080005F0100085F0100085F0100085F010008D0
:100090005F0100085F0100085F0100085F010008C0
:1000A0005F0100085F0100085F0100085F010008B0
:1000B0005F0100085F0100085F0100085F010008A0
:1000C0005F0100085F0100085F0100085F01000890
:1000D0005F0100085F0100085F0100085F01000880
:1000E0005F0100085F0100085F0100085F01000870
:1000F0005F0100085F0100085F0100085F01000860
:100100005F0100085F0100085F0100085F0100084F
:100110005F0100085F0100085F0100085F0100083F
:100120005F0100085F0100085F0100085F0100082F
:10013000DFF80CD000F06CF8004800471D190008EB
:10014000300700200648804706480047FEE7FEE7E4
:10015000FEE7FEE7FEE7FEE7FEE7FEE7FEE7FEE777
:10016000D51400083101000840EA01039B0703D0C1
:1001700009E008C9121F08C0042AFAD203E011F8E6
:10018000013B00F8013B521EF9D27047D2B201E0A8
:1001900000F8012B491EFBD270470022F6E710B58C
:1001A00013460A4604461946FFF7F0FF204610BDE5
:1001B00030B505462A460B4612F8010B13F8014BE1
:1001C00008B1A042F8D01CB1002802D06D1CF1E7A4
:1001D000284630BD421C10F8011B0029FBD1801AB3
:1001E000704730B50B46014600202022012409E06B
:1001F00021FA02F59D4205D303FA02F5491B04FAE0
:1002000002F52844151EA2F10102F1DC30BD000008
:10021000064C074D06E0E06840F0010394E8070053
:1002200098471034AC42F6D3FFF786FF80190008D8
:10023000A019000800BFFEE7704772B600BFFEE7D6
:1002400070B5044600F0B0F906462546681C10B1AA
:1002500004480078054400BF00F0A6F9801BA842BE
:10026000FAD370BD080000202DE9F84702460023AC
:100270009C467BE14FF0010808FA03F4D1F80080B6
:1002800008EA0400A0427DD1DFF8F4A2D1F804808E
:10029000A8EB0A09D0453AD014DCB8F1030F50D0CE
:1002A00009DCB8F1000F31D0B8F1010F1CD0B8F162
:1002B000020F49D120E0B8F1110F18D0B8F1120F98
:1002C00042D11EE0B9F5881F25D006DCB9F5803F84
:1002D00020D0B9F5801F37D11AE0B9F5001F18D02A
:1002E000B9F5041F30D117E0D1F80CC02DE0D1F8DA
:1002F0000C8008F1040C28E0D1F80C8008F1080CFF
:1003000023E0D1F80C8008F10C0C1EE000BF00BF08
:1003100000BF00BF00BF00BFD1F80880B8F1000FD8
:1003200002D14FF0040C0BE0D1F80880B8F1010FB6
:1003300003D14FF0080C146102E04FF0080C546137
:1003400003E04FF0000C00E000BF00BFFF2801D821
:10035000904601E002F104084646FF2802D84FEA21
:10036000830803E0A3F108084FEA88084746D6F857
:1003700000804FF00F0909FA07F928EA09080CFA7A
:1003800007F900E07AE048EA0908C6F80080D1F8E9
:10039000048008F08058B8F1805F6FD100BFDFF8AB
:1003A000E481D8F8188048F00108DFF8D891C9F83E
:1003B0001880C846D8F8188008F00108CDF80080E9
:1003C00000BF00BF4FEAB9384FEA930958F82950E7
:1003D0004FEA83784FEA18794FF00F0808FA09F8C6
:1003E00025EA0805DFF8A081424502D14FF0000858
:1003F00024E0DFF89881424502D14FF001081DE06A
:10040000DFF88C81424502D14FF0020816E0DFF898
:100410008481424502D14FF003080FE0DFF8788174
:10042000424502D14FF0040808E0DFF870814245F0
:1004300002D14FF0050801E04FF006084FEA83793A
:100440004FEA197908FA09F848EA0505DFF85081FA
:100450004FEA930948F82950D1F8048008F480182D
:10046000B8F5801F0BD1DFF83C81D8F8008048EA4E
:100470000008DFF83091C9F800800AE075E0DFF885
:100480002481D8F8008028EA0008DFF81891C9F81C
:100490000080D1F8048008F40018B8F5001F0ED1D0
:1004A000DFF8008108F10408D8F8008048EA000865
:1004B000DFF8F09009F10409C9F800800DE0DFF8D9
:1004C000E48008F10408D8F8008028EA0008DFF882
:1004D000D49009F10409C9F80080D1F8048008F427
:1004E0000038B8F5003F0ED1DFF8B880A8F1040855
:1004F000D8F8008048EA0008DFF8A890A9F10409BC
:10050000C9F800800DE0DFF89C80A8F10408D8F855
:10051000008028EA0008DFF88C90A9F10409C9F8E6
:100520000080D1F8048008F48038B8F5803F0ED1FF
:10053000DFF87080A8F10808D8F8008048EA0008C1
:10054000DFF86090A9F10809C9F800800DE0DFF834
:100550005480A8F10808D8F8008028EA0008DFF8DD
:100560004490A9F10809C9F800805B1CD1F800800B
:1005700028FA03F8B8F1000F7FF47CAEBDE8F887E5
:10058000000011100010024000080140000C014062
:10059000001001400014014000180140001C0140FF
:1005A000080001400804014001480068704700004D
:1005B0000000002003480068034909780844014905
:1005C00008607047000000200800002010B50848AF
:1005D000006840F0100006490860032000F098F819
:1005E0000F2000F007F800F02BF8002010BD0000ED
:1005F0000020024070B504460E4800784FF47A712E
:10060000B1FBF0F00C490968B1FBF0F5284600F0A9
:10061000E9FB08B1012070BD102C07D20022214651
:10062000501E00F037F80548046001E00120F2E7B1
:100630000020F0E7080000200C000020040000204B
:1006400008B500BF1148806940F001000F4988617A
:100650000846806900F00100009000BF00BF00BFA5
:100660000846C06940F08050C8610846C06900F083
:100670008050009000BF00BF00BF0549486820F0CF
:10068000E06040F00070486000BF08BD001002400C
:10069000000001402DE9F05F80460D461646002718
:1006A00001F026F8074639462A46334601F007008E
:1006B000C0F1070ABAF1040F02D94FF0040A01E0B1
:1006C000C0F1070AD14600F1040ABAF1070F02D2BD
:1006D0004FF0000A01E0A0F1030AD4464FF0010AEE
:1006E0000AFA09FAAAF1010A0AEA020A0AFA0CFA53
:1006F0004FF0010B0BFA0CFBABF1010B0BEA030BF8
:100700004AEA0B042146404600F0FAFFBDE8F09F9C
:1007100000BF00F00702064B19684FF6FF031940AF
:10072000044B0B4343EA0221014B196000BF7047A1
:100730000CED00E00000FA0570B504460D460CB95A
:10074000012070BD5A48006800F00700A8420ED290
:100750005748006820F007002843554908600846BC
:10076000006800F00700A84201D00120E9E72078E6
:1007700000F0020002281DD1207800F004000428B7
:1007800005D14C48406840F4E0604A494860207810
:1007900000F00800082805D14648406840F4605041
:1007A000444948604348406820F0F000A16808438D
:1007B00040494860207800F0010078B36068012863
:1007C00006D13C48006800F4003090B90120B8E739
:1007D0006068022806D13748006800F0007040B910
:1007E0000120AEE73348006800F0020008B901209C
:1007F000A7E73048406820F00300616808432D49AE
:100800004860FFF7D1FE064609E0FFF7CDFE801BEA
:1008100041F28831884202D9032092E707E0254857
:10082000406800F00C006168B0EB810FEDD120480A
:10083000006800F00700A8420ED91D48006820F0AB
:10084000070028431A4908600846006800F00700BE
:10085000A84201D0012074E7207800F004000428A9
:1008600007D11448406820F4E060E168084311496A
:100870004860207800F00800082808D10D4840683A
:1008800020F46050216940EAC1000A49486000F044
:100890003FF808494968C1F30311074A515CC84051
:1008A0000649086006480068FFF7A4FE002048E7F4
:1008B0000020024000100240661900080C000020D1
:1008C0000400002001480068704700000C00002070
:1008D00000B5FFF7F7FF04494968C1F30221034A55
:1008E000515CC84000BD00000010024076190008AD
:1008F00000B5FFF7E7FF04494968C1F3C221034A85
:10090000515CC84000BD000000100240761900088C
:1009100070B500210022002400230020134D6968D7
:1009200001F00C05F5B1042D02D0082D19D101E01C
:100930000F4819E00F4DC1F38346AB5D01F48035DC
:1009400055B10A4D6D68C5F340450B4E725D084DBB
:100950005D43B5FBF2F402E0084D03FB05F42046CD
:1009600002E000BF024800BF00BF70BD001002409F
:1009700000127A00541900086419000800093D00AB
:10098000F8B504460CB90120F8BD207800F001004C
:10099000002878D0F848406800F00C0004280CD0FB
:1009A000F548406800F00C00082811D1F248406872
:1009B00000F48030B0F5803F0AD1EF48006800F4C1
:1009C000003000285FD0606800285CD10120DBE7A0
:1009D00000BF6068B0F5803F06D1E748006840F48A
:1009E0008030E549086028E0606858B9E24800684E
:1009F00020F48030E04908600846006820F4802038
:100A000008601AE06068B0F5A02F0BD1DA480068E2
:100A100040F48020D84908600846006840F48030DF
:100A200008600AE0D448006820F48030D2490860A9
:100A30000846006820F48020086000BF606888B124
:100A4000FFF7B2FD054606E0FFF7AEFD401B642848
:100A500001D9032098E7C848006800F40030002856
:100A6000F2D010E0FFF7A0FD054606E0FFF79CFD81
:100A7000401B642801D9032086E7BF48006800F4C2
:100A800000300028F2D1207800F00200022857D16F
:100A9000B948406800F00C0050B1B748406800F019
:100AA0000C00082818D1B448406800F4803098B988
:100AB000B148006800F0020020B12069012801D08F
:100AC000012061E7AC48006820F0F800616940EA65
:100AD000C100A949086033E02069E8B10120A749B5
:100AE0000860FFF761FD054606E0FFF75DFD401B6E
:100AF000022801D9032047E79F48006800F0020060
:100B00000028F2D09C48006820F0F800616940EAB3
:100B1000C1009949086013E0002098490860FFF778
:100B200043FD054606E0FFF73FFD401B022801D9C3
:100B3000032029E79048006800F002000028F2D165
:100B4000207800F0080008282DD1A069B8B1012054
:100B50008B490860FFF728FD054606E0FFF724FDF6
:100B6000401B022801D903200EE78348406A00F0A9
:100B700002000028F2D0012000F060FC13E0002009
:100B80007F490860FFF710FD054606E0FFF70CFD02
:100B9000401B022801D90320F6E67748406A00F09E
:100BA00002000028F2D1207800F00400042873D15C
:100BB00000277148C06900F0805070B900BF6E48CE
:100BC000C06940F080506C49C8610846C06900F0B7
:100BD0008050009000BF00BF01276A48006800F401
:100BE0008070B0B96748006840F48070654908605B
:100BF000FFF7DAFC054606E0FFF7D6FC401B642849
:100C000001D90320C0E65F48006800F48070002826
:100C1000F2D000BFE068012806D15748006A40F0D2
:100C200001005549086227E0E06858B95248006A57
:100C300020F00100504908620846006A20F00400D4
:100C4000086219E0E06805280BD14B48006A40F0C3
:100C50000400494908620846006A40F00100086241
:100C60000AE04548006A20F001004349086208464E
:100C7000006A20F00400086200BFE068A0B1FFF73E
:100C800093FC054609E0FFF78FFC401B41F28831D9
:100C9000884202D9032077E622E03748006A00F054
:100CA00002000028EFD012E0FFF77EFC054608E0C6
:100CB000FFF77AFC401B41F28831884201D90320BA
:100CC00062E62D48006A00F002000028F0D1012FF2
:100CD00005D12948C06920F080502749C86100BF6C
:100CE000E069C8B32448406800F00C00082860D0D0
:100CF000E069022848D1002020490866FFF754FC2B
:100D0000054606E0FFF750FC401B022801D90320EE
:100D10003AE61948006800F000700028F2D1206A15
:100D2000B0F5803F07D11448406820F40030A16836
:100D3000084311494860D4E9080108430E4949684D
:100D400021F4741108430C49486001200B490866DE
:100D5000FFF72AFC054607E03DE0FFF725FC401BB6
:100D6000022801D903200FE60348006800F0007054
:100D70000028F2D02FE000000010024000004242A4
:100D80008004424200700040002014490866FFF7CA
:100D90000BFC054606E0FFF707FC401B022801D9C3
:100DA0000320F1E50E48006800F000700028F2D141
:100DB00011E0E069012800D1E6E50948466806F43B
:100DC0008031206A814204D106F47011606A814248
:100DD00001D00120D8E50020D6E500000000424205
:100DE0000010024070B504462546681EB0F1807FB1
:100DF00001D301200FE0681E4FF0E02148610F2170
:100E00004FF0FF3000F07CFC00204FF0E0218861C3
:100E100007200861002070BD2DE9F84F04460F46F9
:100E200090461D46DDF828A094F84200202878D18D
:100E300017B1B8F1000F02D10120BDE8F88F0020F2
:100E40006064222084F84200012020630020606357
:100E5000FFF7AAFB8346A4F82C80A4F82E80A06894
:100E6000B0F5805F04D1206910B90026B94602E0D0
:100E70003E464FF000090020288053E020680068BB
:100E800000F01000102813D100BF0020009020684F
:100E90000068009020684068009000BF00BF28886C
:100EA00030B102206063202084F842000020C4E7B3
:100EB0002068006800F02000202821D146B9206871
:100EC0004068C0F30800A9F8000009F1020911E028
:100ED000A068B0F5805F03D0A06828B9206918B970
:100EE00020684068307004E02068406800F07F00AF
:100EF0003070761C2888401C2880E08D401EE085DC
:100F00000AF1010070B1FFF74FFBA0EB0B00504559
:100F100002D8BAF1000F05D1202084F84200032046
:100F20008BE70BE0E08D0028A8D1A08DE18D401A61
:100F30002880202084F8420000207EE702207CE701
:100F400010B504460CB9012010BDA06900B100E045
:100F500000BF94F8410028B9002084F840002046E2
:100F600000F02AF8242084F841002068C06820F4AA
:100F700000502168C860204600F0E4FA206800694B
:100F800020F49040216808612068406920F02A0020
:100F9000216848612068C06840F400502168C8603A
:100FA00000206064202084F8410084F84200002082
:100FB000606300BFC8E7000010B586B0044600209B
:100FC00002900390049005903349206888422FD105
:100FD00000BF3248806940F480403049886108464B
:100FE000806900F48040019000BF00BF00BF084648
:100FF000806940F0040088610846806900F00400C0
:10100000019000BF00BF481502900220039003200A
:10101000059002A92248FFF727F94FF4806002905B
:1010200000200390049002A91D48FFF71DF931E04C
:101030001C49206888422DD100BF1848C06940F47F
:1010400000301649C8610846C06900F400300190BC
:1010500000BF00BF00BF0846806940F004008861FF
:101060000846806900F00400019000BF00BF042022
:101070000290022003900320059002A90848FFF780
:10108000F3F80820029000200390049002A904487D
:10109000FFF7EAF806B010BD00380140001002402A
:1010A00000080140004400402DE9F84F04460E4678
:1010B000174699464FF0000A94F84100202850D175
:1010C00006B117B90120BDE8F88F00206064212027
:1010D00084F84100FFF768FA8246A784E784A06895
:1010E000B0F5805F04D1206910B90025B04602E058
:1010F00035464FF000081EE053460022802120466E
:10110000CDF8009000F09CFA20B1202084F8410036
:101110000320D8E745B9B8F80000C0F308002168FB
:10112000486008F1020803E02878216848606D1CD7
:10113000E08C401EE084E08C0028DDD15346002284
:1011400040212046CDF8009000F07AFA20B120200E
:1011500084F841000320B6E7202084F841000020F5
:10116000B1E70220AFE700BFFEE7000010B510A016
:1011700000F0AAF840F6B830FFF762F80FA000F0D0
:10118000A3F811A000F0A0F813A000F09DF817A09C
:1011900000F09AF81BA000F097F823A000F094F854
:1011A0002FA000F091F833A000F08EF810BD0000E1
:1011B00041542B5253543D300D0A000041542B47EB
:1011C0004D520D0A0000000041542B424C45494E3F
:1011D00049543D320D0A000041542B424C454741D1
:1011E0005454535352564352450D0A0041542B4216
:1011F0004C45474154545353525653544152540D45
:101200000A00000041542B424C4541445650415283
:10121000414D3D35302C35302C302C302C372C3096
:101220002C2C0D0A0000000041542B424C45414437
:10123000564441544145582245535033325F43335D
:101240002D74657374222C2241303032222C226599
:10125000313032303330343035222C310D0A000039
:1012600041542B424C4541445653544152540D0A6B
:101270000000000041542B424C4553505043464718
:101280003D312C2C312C372C312C350D0A0000002F
:1012900008B54FF47A70074B4FF4807206490090FE
:1012A0000648FFF7B9FD044A0248018804A000F08F
:1012B0000FFA08BD140000202C020020640000205A
:1012C00025643A25730D0A0038B504462046FEF71A
:1012D00081FF85B24FF47A732A4621461E48FFF7F4
:1012E000E3FE4FF480711D48FEF757FF00201C49B4
:1012F000088000BF80211B48FEF74FFF00201A49DD
:1013000008804FF47A700B468022164900901248EC
:10131000FFF782FD1149124A1288881812490A887B
:101320001049FEF721FF0E4800880F49098808443C
:101330000B4908800DA10948FEF73AFF28B90CA116
:101340000648FEF735FF0028D4D0044A0448018837
:1013500009A000F0BDF938BD640000202C01002078
:1013600012000020AC000020100000206F6B000075
:101370004552524F5200000025643A25730D0A0071
:1013800008B500BF0D48806940F010000B49886126
:101390000846806900F01000009000BF00BF00BF49
:1013A0000846806940F0040088610846806900F0C2
:1013B0000400009000BF00BF08BD00000010024004
:1013C00010B50B480B4908604FF4E130486000212C
:1013D00008488160C16001610C2141610021816187
:1013E000C161FFF7ADFD08B1FEF727FF10BD00009A
:1013F000003801401C00002010B50B480B49086064
:101400004FF4E1304860002108488160C16001610B
:101410000C21416100218161C161FFF791FD08B19B
:10142000FEF70BFF10BD00000044004064000020E8
:1014300000BFFEE700BFFEE77047000008B508499F
:101440000968C9084FF47A72B1FBF2F14143009187
:1014500000BF00BF00994A1E00920029F9D108BDC3
:101460000C000020704710B5FFF7A4F810BD00B5C0
:101470008FB0282105A8FEF790FE14216846FEF7DC
:101480008CFE0120059000040690002007900120AA
:10149000099002200C90C1030D914FF4E0110E91C0
:1014A00005A8FFF76DFA08B1FEF7C7FE0F20009000
:1014B00002200190002002904FF4806003900020F1
:1014C000049002216846FFF737F908B1FEF7B5FE30
:1014D0000FB000BD704700BF00BF02680C3252E879
:1014E000002F22F4907102680C3242E80013002BA6
:1014F000F3D100BF00BF00BF0268143252E8002FD2
:1015000022F001010268143242E80013002BF3D1EB
:1015100000BF016B01290ED100BF00BF02680C3271
:1015200052E8002F22F0100102680C3242E800134A
:10153000002BF3D100BF202180F84210002101636D
:101540007047000070B504462168096921F44051D4
:10155000E2681143226811612269A168114362693E
:1015600041EA02052168C96841F20C6291432943AE
:101570002268D1602168496921F44071A269114350
:10158000226851612D4A2168914202D1FFF7B0F9DA
:1015900001E0FFF79DF900EBC00101EB001162686B
:1015A0009200B1FBF2F100EBC00202EB00126368A3
:1015B0009B00B2FBF3F26423B2FBF3F202EBC20333
:1015C00003EB0212A1EB8201322202EB0111642231
:1015D000B1FBF2F101F0F00100EBC00202EB0012EE
:1015E00063689B00B2FBF3F26423B2FBF3F201EBFE
:1015F000021200EBC00101EB001163689B00B1FB1C
:10160000F3F100EBC00303EB00136668B600B3FB15
:10161000F6F36426B3FBF6F303EBC30606EB031302
:10162000A1EB8301322303EB01116423B1FBF3F13E
:1016300001F00F0111442268916070BD0038014033
:101640002DE9F84304460D4617469846089E31E0BA
:10165000701C70B3FEF7A8FFA0EB0800B04200D8E2
:1016600016B90320BDE8F8832068C06800F00400C4
:10167000F8B1802D1ED0402D1CD020680068C0F32A
:10168000C000B0B100BF002000902068006800904A
:1016900020684068009000BF00BF2046FFF71BFF96
:1016A0000820606400BF002084F8400000BF0120D3
:1016B000D8E7FFE7206800682840A84201D1012050
:1016C00000E00020B842C3D00020CBE700BFFEE717
:1016D0000FB4054B10B503A9044A029800F034F882
:1016E00010BC5DF814FB0000011900081800002070
:1016F00002480068C0F30220704700000CED00E0D3
:1017000010B5002804DB0A07130E054A135406E03F
:101710000A07140E034A00F00F031B1FD45410BD18
:1017200000E400E018ED00E002E008C8121F08C164
:10173000002AFAD170477047002001E001C1121F52
:10174000002AFBD1704700002DE9FF4F8BB09A466D
:101750000F460546002606E025280BD052460D9977
:1017600090476D1C761C28780028F5D10FB03046C4
:10177000BDE8F08F0024A0460122604900E0044348
:1017800015F8013F203B02FA03F00842F7D1287810
:101790002E2817D115F8010F44F004042A280ED082
:1017A0006FF02F022878A0F1300109290AD808EB40
:1017B000880102EB410100EB01086D1CF2E757F8CC
:1017C000048B6D1C287869283ED006DC0028CDD01B
:1017D00063280BD0642804D136E0732810D0752814
:1017E0004BD052460D999047761C85E017F8040BB4
:1017F0008DF8000000208DF80100E946012003E08B
:1018000057F8049B4FF0FF3061074FF0000401D4FC
:101810000AE0641C44450DDA8442FADB19F804102E
:101820000029F6D106E0641C8442FCDB19F80410A0
:101830000029F8D1264404E019F8010B52460D990D
:101840009047641EF8D257E001CF4FF00A0B0028F2
:1018500002DA40422D2102E0210504D52B218DF82A
:101860002410012103E0E10705D02021F7E70DF165
:10187000200908910CE00021F9E701CF4FF00A0B95
:10188000F9E75946FEF7ADFC01F1300209F8012DE8
:101890000028F6D1ADEB090000F1200B600701D460
:1018A0004FF00108D84502DDA8EB0B0000E0002056
:1018B0008046002406E009A85246005D0D99904735
:1018C000641C761C08988442F5DB04E03020524604
:1018D0000D999047761CB8F10001A8F10108F5DCDC
:1018E00005E019F8010B52460D999047761CBBF1A3
:1018F0000001ABF1010BF4DC6D1C34E70928010099
:1019000013B50C464FF47A73012269460248FFF77B
:10191000CBFB00981CBD00001C000020FEF756FE0B
:10192000FFF7A5FDFFF72CFDFFF74AFDFFF764FD6C
:1019300004A0FFF7CDFEFFF719FC01E0FFF7A8FCBC
:10194000FCE7000068656C6C6F20776F726C640D4B
:101950000A00000002030405060708090A0B0C0D23
:101960000E0F101001020000000000000000010234
:101970000304060708090000000001020304000038
:10198000A0190008000000201C0000002817000813
:10199000BC1900081C0000201407000038170008BC
:1019A00000000000100000000100000000127A009A
:0C19B0000000000000000000000000002B
:0400000508000131BD
:00000001FF
